{
  "_format": "hh-sol-artifact-1",
  "contractName": "Gravity",
  "sourceName": "contracts/Gravity.sol",
  "abi": [
    {
      "inputs": [
        {
          "internalType": "bytes32",
          "name": "_gravityId",
          "type": "bytes32"
        },
        {
          "internalType": "uint256",
          "name": "_powerThreshold",
          "type": "uint256"
        },
        {
          "internalType": "address[]",
          "name": "_validators",
          "type": "address[]"
        },
        {
          "internalType": "uint256[]",
          "name": "_powers",
          "type": "uint256[]"
        }
      ],
      "stateMutability": "nonpayable",
      "type": "constructor"
    },
    {
      "anonymous": false,
      "inputs": [
        {
          "indexed": false,
          "internalType": "string",
          "name": "_cosmosDenom",
          "type": "string"
        },
        {
          "indexed": true,
          "internalType": "address",
          "name": "_tokenContract",
          "type": "address"
        },
        {
          "indexed": false,
          "internalType": "string",
          "name": "_name",
          "type": "string"
        },
        {
          "indexed": false,
          "internalType": "string",
          "name": "_symbol",
          "type": "string"
        },
        {
          "indexed": false,
          "internalType": "uint8",
          "name": "_decimals",
          "type": "uint8"
        },
        {
          "indexed": false,
          "internalType": "uint256",
          "name": "_eventNonce",
          "type": "uint256"
        }
      ],
      "name": "ERC20DeployedEvent",
      "type": "event"
    },
    {
      "anonymous": false,
      "inputs": [
        {
          "indexed": false,
          "internalType": "bytes32",
          "name": "_invalidationId",
          "type": "bytes32"
        },
        {
          "indexed": false,
          "internalType": "uint256",
          "name": "_invalidationNonce",
          "type": "uint256"
        },
        {
          "indexed": false,
          "internalType": "bytes",
          "name": "_returnData",
          "type": "bytes"
        },
        {
          "indexed": false,
          "internalType": "uint256",
          "name": "_eventNonce",
          "type": "uint256"
        }
      ],
      "name": "LogicCallEvent",
      "type": "event"
    },
    {
      "anonymous": false,
      "inputs": [
        {
          "indexed": true,
          "internalType": "address",
          "name": "_tokenContract",
          "type": "address"
        },
        {
          "indexed": true,
          "internalType": "address",
          "name": "_sender",
          "type": "address"
        },
        {
          "indexed": true,
          "internalType": "bytes32",
          "name": "_destination",
          "type": "bytes32"
        },
        {
          "indexed": false,
          "internalType": "uint256",
          "name": "_amount",
          "type": "uint256"
        },
        {
          "indexed": false,
          "internalType": "uint256",
          "name": "_eventNonce",
          "type": "uint256"
        }
      ],
      "name": "SendToCosmosEvent",
      "type": "event"
    },
    {
      "anonymous": false,
      "inputs": [
        {
          "indexed": true,
          "internalType": "uint256",
          "name": "_batchNonce",
          "type": "uint256"
        },
        {
          "indexed": true,
          "internalType": "address",
          "name": "_token",
          "type": "address"
        },
        {
          "indexed": false,
          "internalType": "uint256",
          "name": "_eventNonce",
          "type": "uint256"
        }
      ],
      "name": "TransactionBatchExecutedEvent",
      "type": "event"
    },
    {
      "anonymous": false,
      "inputs": [
        {
          "indexed": true,
          "internalType": "uint256",
          "name": "_newValsetNonce",
          "type": "uint256"
        },
        {
          "indexed": false,
          "internalType": "uint256",
          "name": "_eventNonce",
          "type": "uint256"
        },
        {
          "indexed": false,
          "internalType": "uint256",
          "name": "_rewardAmount",
          "type": "uint256"
        },
        {
          "indexed": false,
          "internalType": "address",
          "name": "_rewardToken",
          "type": "address"
        },
        {
          "indexed": false,
          "internalType": "address[]",
          "name": "_validators",
          "type": "address[]"
        },
        {
          "indexed": false,
          "internalType": "uint256[]",
          "name": "_powers",
          "type": "uint256[]"
        }
      ],
      "name": "ValsetUpdatedEvent",
      "type": "event"
    },
    {
      "inputs": [
        {
          "internalType": "string",
          "name": "_cosmosDenom",
          "type": "string"
        },
        {
          "internalType": "string",
          "name": "_name",
          "type": "string"
        },
        {
          "internalType": "string",
          "name": "_symbol",
          "type": "string"
        },
        {
          "internalType": "uint8",
          "name": "_decimals",
          "type": "uint8"
        }
      ],
      "name": "deployERC20",
      "outputs": [],
      "stateMutability": "nonpayable",
      "type": "function"
    },
    {
      "inputs": [
        {
          "internalType": "address",
          "name": "_erc20Address",
          "type": "address"
        }
      ],
      "name": "lastBatchNonce",
      "outputs": [
        {
          "internalType": "uint256",
          "name": "",
          "type": "uint256"
        }
      ],
      "stateMutability": "view",
      "type": "function"
    },
    {
      "inputs": [
        {
          "internalType": "bytes32",
          "name": "_invalidation_id",
          "type": "bytes32"
        }
      ],
      "name": "lastLogicCallNonce",
      "outputs": [
        {
          "internalType": "uint256",
          "name": "",
          "type": "uint256"
        }
      ],
      "stateMutability": "view",
      "type": "function"
    },
    {
      "inputs": [
        {
          "internalType": "address",
          "name": "_tokenContract",
          "type": "address"
        },
        {
          "internalType": "bytes32",
          "name": "_destination",
          "type": "bytes32"
        },
        {
          "internalType": "uint256",
          "name": "_amount",
          "type": "uint256"
        }
      ],
      "name": "sendToCosmos",
      "outputs": [],
      "stateMutability": "nonpayable",
      "type": "function"
    },
    {
      "inputs": [],
      "name": "state_gravityId",
      "outputs": [
        {
          "internalType": "bytes32",
          "name": "",
          "type": "bytes32"
        }
      ],
      "stateMutability": "view",
      "type": "function"
    },
    {
      "inputs": [
        {
          "internalType": "bytes32",
          "name": "",
          "type": "bytes32"
        }
      ],
      "name": "state_invalidationMapping",
      "outputs": [
        {
          "internalType": "uint256",
          "name": "",
          "type": "uint256"
        }
      ],
      "stateMutability": "view",
      "type": "function"
    },
    {
      "inputs": [
        {
          "internalType": "address",
          "name": "",
          "type": "address"
        }
      ],
      "name": "state_lastBatchNonces",
      "outputs": [
        {
          "internalType": "uint256",
          "name": "",
          "type": "uint256"
        }
      ],
      "stateMutability": "view",
      "type": "function"
    },
    {
      "inputs": [],
      "name": "state_lastEventNonce",
      "outputs": [
        {
          "internalType": "uint256",
          "name": "",
          "type": "uint256"
        }
      ],
      "stateMutability": "view",
      "type": "function"
    },
    {
      "inputs": [],
      "name": "state_lastValsetCheckpoint",
      "outputs": [
        {
          "internalType": "bytes32",
          "name": "",
          "type": "bytes32"
        }
      ],
      "stateMutability": "view",
      "type": "function"
    },
    {
      "inputs": [],
      "name": "state_lastValsetNonce",
      "outputs": [
        {
          "internalType": "uint256",
          "name": "",
          "type": "uint256"
        }
      ],
      "stateMutability": "view",
      "type": "function"
    },
    {
      "inputs": [],
      "name": "state_powerThreshold",
      "outputs": [
        {
          "internalType": "uint256",
          "name": "",
          "type": "uint256"
        }
      ],
      "stateMutability": "view",
      "type": "function"
    },
    {
      "inputs": [
        {
          "components": [
            {
              "internalType": "address[]",
              "name": "validators",
              "type": "address[]"
            },
            {
              "internalType": "uint256[]",
              "name": "powers",
              "type": "uint256[]"
            },
            {
              "internalType": "uint256",
              "name": "valsetNonce",
              "type": "uint256"
            },
            {
              "internalType": "uint256",
              "name": "rewardAmount",
              "type": "uint256"
            },
            {
              "internalType": "address",
              "name": "rewardToken",
              "type": "address"
            }
          ],
          "internalType": "struct ValsetArgs",
          "name": "_currentValset",
          "type": "tuple"
        },
        {
          "internalType": "uint8[]",
          "name": "_v",
          "type": "uint8[]"
        },
        {
          "internalType": "bytes32[]",
          "name": "_r",
          "type": "bytes32[]"
        },
        {
          "internalType": "bytes32[]",
          "name": "_s",
          "type": "bytes32[]"
        },
        {
          "internalType": "uint256[]",
          "name": "_amounts",
          "type": "uint256[]"
        },
        {
          "internalType": "address[]",
          "name": "_destinations",
          "type": "address[]"
        },
        {
          "internalType": "uint256[]",
          "name": "_fees",
          "type": "uint256[]"
        },
        {
          "internalType": "uint256",
          "name": "_batchNonce",
          "type": "uint256"
        },
        {
          "internalType": "address",
          "name": "_tokenContract",
          "type": "address"
        },
        {
          "internalType": "uint256",
          "name": "_batchTimeout",
          "type": "uint256"
        }
      ],
      "name": "submitBatch",
      "outputs": [],
      "stateMutability": "nonpayable",
      "type": "function"
    },
    {
      "inputs": [
        {
          "components": [
            {
              "internalType": "address[]",
              "name": "validators",
              "type": "address[]"
            },
            {
              "internalType": "uint256[]",
              "name": "powers",
              "type": "uint256[]"
            },
            {
              "internalType": "uint256",
              "name": "valsetNonce",
              "type": "uint256"
            },
            {
              "internalType": "uint256",
              "name": "rewardAmount",
              "type": "uint256"
            },
            {
              "internalType": "address",
              "name": "rewardToken",
              "type": "address"
            }
          ],
          "internalType": "struct ValsetArgs",
          "name": "_currentValset",
          "type": "tuple"
        },
        {
          "internalType": "uint8[]",
          "name": "_v",
          "type": "uint8[]"
        },
        {
          "internalType": "bytes32[]",
          "name": "_r",
          "type": "bytes32[]"
        },
        {
          "internalType": "bytes32[]",
          "name": "_s",
          "type": "bytes32[]"
        },
        {
          "components": [
            {
              "internalType": "uint256[]",
              "name": "transferAmounts",
              "type": "uint256[]"
            },
            {
              "internalType": "address[]",
              "name": "transferTokenContracts",
              "type": "address[]"
            },
            {
              "internalType": "uint256[]",
              "name": "feeAmounts",
              "type": "uint256[]"
            },
            {
              "internalType": "address[]",
              "name": "feeTokenContracts",
              "type": "address[]"
            },
            {
              "internalType": "address",
              "name": "logicContractAddress",
              "type": "address"
            },
            {
              "internalType": "bytes",
              "name": "payload",
              "type": "bytes"
            },
            {
              "internalType": "uint256",
              "name": "timeOut",
              "type": "uint256"
            },
            {
              "internalType": "bytes32",
              "name": "invalidationId",
              "type": "bytes32"
            },
            {
              "internalType": "uint256",
              "name": "invalidationNonce",
              "type": "uint256"
            }
          ],
          "internalType": "struct LogicCallArgs",
          "name": "_args",
          "type": "tuple"
        }
      ],
      "name": "submitLogicCall",
      "outputs": [],
      "stateMutability": "nonpayable",
      "type": "function"
    },
    {
      "inputs": [
        {
          "internalType": "address[]",
          "name": "_currentValidators",
          "type": "address[]"
        },
        {
          "internalType": "uint256[]",
          "name": "_currentPowers",
          "type": "uint256[]"
        },
        {
          "internalType": "uint8[]",
          "name": "_v",
          "type": "uint8[]"
        },
        {
          "internalType": "bytes32[]",
          "name": "_r",
          "type": "bytes32[]"
        },
        {
          "internalType": "bytes32[]",
          "name": "_s",
          "type": "bytes32[]"
        },
        {
          "internalType": "bytes32",
          "name": "_theHash",
          "type": "bytes32"
        },
        {
          "internalType": "uint256",
          "name": "_powerThreshold",
          "type": "uint256"
        }
      ],
      "name": "testCheckValidatorSignatures",
      "outputs": [],
      "stateMutability": "pure",
      "type": "function"
    },
    {
      "inputs": [
        {
          "components": [
            {
              "internalType": "address[]",
              "name": "validators",
              "type": "address[]"
            },
            {
              "internalType": "uint256[]",
              "name": "powers",
              "type": "uint256[]"
            },
            {
              "internalType": "uint256",
              "name": "valsetNonce",
              "type": "uint256"
            },
            {
              "internalType": "uint256",
              "name": "rewardAmount",
              "type": "uint256"
            },
            {
              "internalType": "address",
              "name": "rewardToken",
              "type": "address"
            }
          ],
          "internalType": "struct ValsetArgs",
          "name": "_valsetArgs",
          "type": "tuple"
        },
        {
          "internalType": "bytes32",
          "name": "_gravityId",
          "type": "bytes32"
        }
      ],
      "name": "testMakeCheckpoint",
      "outputs": [],
      "stateMutability": "pure",
      "type": "function"
    },
    {
      "inputs": [
        {
          "components": [
            {
              "internalType": "address[]",
              "name": "validators",
              "type": "address[]"
            },
            {
              "internalType": "uint256[]",
              "name": "powers",
              "type": "uint256[]"
            },
            {
              "internalType": "uint256",
              "name": "valsetNonce",
              "type": "uint256"
            },
            {
              "internalType": "uint256",
              "name": "rewardAmount",
              "type": "uint256"
            },
            {
              "internalType": "address",
              "name": "rewardToken",
              "type": "address"
            }
          ],
          "internalType": "struct ValsetArgs",
          "name": "_newValset",
          "type": "tuple"
        },
        {
          "components": [
            {
              "internalType": "address[]",
              "name": "validators",
              "type": "address[]"
            },
            {
              "internalType": "uint256[]",
              "name": "powers",
              "type": "uint256[]"
            },
            {
              "internalType": "uint256",
              "name": "valsetNonce",
              "type": "uint256"
            },
            {
              "internalType": "uint256",
              "name": "rewardAmount",
              "type": "uint256"
            },
            {
              "internalType": "address",
              "name": "rewardToken",
              "type": "address"
            }
          ],
          "internalType": "struct ValsetArgs",
          "name": "_currentValset",
          "type": "tuple"
        },
        {
          "internalType": "uint8[]",
          "name": "_v",
          "type": "uint8[]"
        },
        {
          "internalType": "bytes32[]",
          "name": "_r",
          "type": "bytes32[]"
        },
        {
          "internalType": "bytes32[]",
          "name": "_s",
          "type": "bytes32[]"
        }
      ],
      "name": "updateValset",
      "outputs": [],
      "stateMutability": "nonpayable",
      "type": "function"
    }
  ],
  "bytecode": "0x6080604052600060045560016005553480156200001b57600080fd5b506040516200382e3803806200382e8339810160408190526200003e91620002b9565b60016000558051825114620000705760405162461bcd60e51b81526004016200006790620004d0565b60405180910390fd5b6000805b8251811015620000af578281815181106200008b57fe5b60200260200101518201915084821115620000a657620000af565b60010162000074565b50838111620000d25760405162461bcd60e51b8152600401620000679062000473565b620000dc620001f3565b506040805160a0810182528481526020810184905260009181018290526060810182905260808101829052906200011d82886001600160e01b036200018516565b60068890556007879055600181905560045460055460405192935090917f76d08978c024a4bf8cbb30c67fd78fcaa1827cbc533e4e175f36d07e64ccf96a91620001709160009081908b908b9062000507565b60405180910390a2505050505050506200059d565b6000806918da1958dadc1bda5b9d60b21b60001b90506000838286604001518760000151886020015189606001518a60800151604051602001620001d0979695949392919062000413565b60408051601f198184030181529190528051602090910120925050505b92915050565b6040518060a001604052806060815260200160608152602001600081526020016000815260200160006001600160a01b031681525090565b80516001600160a01b0381168114620001ed57600080fd5b600082601f83011262000254578081fd5b81516200026b62000265826200057d565b62000556565b8181529150602080830190848101818402860182018710156200028d57600080fd5b60005b84811015620002ae5781518452928201929082019060010162000290565b505050505092915050565b60008060008060808587031215620002cf578384fd5b845160208087015160408801519296509450906001600160401b0380821115620002f7578485fd5b81880189601f82011262000309578586fd5b805192506200031c62000265846200057d565b83815284810190828601868602840187018d101562000339578889fd5b8893505b858410156200036757620003528d826200022b565b8352600193909301929186019186016200033d565b5060608b0151909750945050508083111562000381578384fd5b5050620003918782880162000243565b91505092959194509250565b6000815180845260208085019450808401835b83811015620003d75781516001600160a01b031687529582019590820190600101620003b0565b509495945050505050565b6000815180845260208085019450808401835b83811015620003d757815187529582019590820190600101620003f5565b600088825287602083015286604083015260e060608301526200043a60e08301876200039d565b82810360808401526200044e8187620003e2565b60a084019590955250506001600160a01b039190911660c09091015295945050505050565b6020808252603c908201527f5375626d69747465642076616c696461746f7220736574207369676e6174757260408201527f657320646f206e6f74206861766520656e6f75676820706f7765722e00000000606082015260800190565b6020808252601f908201527f4d616c666f726d65642063757272656e742076616c696461746f722073657400604082015260600190565b600086825285602083015260018060a01b038516604083015260a060608301526200053660a08301856200039d565b82810360808401526200054a8185620003e2565b98975050505050505050565b6040518181016001600160401b03811182821017156200057557600080fd5b604052919050565b60006001600160401b0382111562000593578081fd5b5060209081020190565b61328180620005ad6000396000f3fe60806040523480156200001157600080fd5b5060043610620001185760003560e01c8063b56561fe11620000a5578063df97174b116200006f578063df97174b1462000224578063e5a2b5d2146200023b578063f2b533071462000245578063f7955637146200024f5762000118565b8063b56561fe14620001e2578063bdda81d414620001ec578063c9d194d514620001f6578063db7c4e57146200020d5762000118565b806373b2054711620000e757806373b2054714620001935780637dfb6f86146200019d5780638174741814620001b4578063a5352f5b14620001cb5762000118565b806301031525146200011d578063011b217414620001365780631ffbe7f914620001655780634c164fef146200017c575b600080fd5b620001346200012e36600462001989565b62000266565b005b6200014d6200014736600462001530565b62000277565b6040516200015c919062001c1e565b60405180910390f35b62000134620001763660046200154e565b62000292565b620001346200018d366004620018ad565b62000351565b6200014d620006a1565b6200014d620001ae366004620016a0565b620006a7565b62000134620001c53660046200175b565b620006b9565b62000134620001dc366004620019d0565b62000991565b6200014d62000b9b565b6200014d62000ba1565b6200014d62000207366004620016a0565b62000ba7565b620001346200021e3660046200158f565b62000bb9565b6200014d6200023536600462001530565b62000bd3565b6200014d62000be5565b6200014d62000beb565b6200013462000260366004620016b9565b62000bf1565b62000272828262000ca3565b505050565b6001600160a01b031660009081526002602052604090205490565b60026000541415620002c15760405162461bcd60e51b8152600401620002b890620022c3565b60405180910390fd5b6002600055620002e36001600160a01b03841633308463ffffffff62000d1116565b600554620002f990600163ffffffff62000d7316565b6005819055604051839133916001600160a01b038716917fd7767894d73c589daeca9643f445f03d7be61aad2950c117e7cbff4176fca7e4916200033f918791620022fa565b60405180910390a45050600160005550565b60026000541415620003775760405162461bcd60e51b8152600401620002b890620022c3565b600260005560c08101514310620003a25760405162461bcd60e51b8152600401620002b89062002016565b61010081015160e082015160009081526003602052604090205410620003dc5760405162461bcd60e51b8152600401620002b89062001f82565b602085015151855151148015620003f557508351855151145b80156200040457508251855151145b80156200041357508151855151145b620004325760405162461bcd60e51b8152600401620002b8906200228c565b600154620004438660065462000ca3565b14620004635760405162461bcd60e51b8152600401620002b89062001e98565b602081015151815151146200048c5760405162461bcd60e51b8152600401620002b890620020d9565b80606001515181604001515114620004b85760405162461bcd60e51b8152600401620002b89062001e68565b6000600654681b1bd9da58d0d85b1b60ba1b836000015184602001518560400151866060015187608001518860a001518960c001518a60e001518b6101000151604051602001620005149b9a9998979695949392919062001c87565b60405160208183030381529060405280519060200120905062000547866000015187602001518787878660075462000da2565b61010082015160e08301516000908152600360205260408120919091555b825151811015620005cd57620005c48360800151846000015183815181106200058a57fe5b602002602001015185602001518481518110620005a357fe5b60200260200101516001600160a01b031662000eac9092919063ffffffff16565b60010162000565565b506060620005e483608001518460a0015162000ece565b905060005b8360400151518110156200062f576200062633856040015183815181106200060d57fe5b602002602001015186606001518481518110620005a357fe5b600101620005e9565b506005546200064690600163ffffffff62000d7316565b600581905560e08401516101008501516040517f7c2bb24f8e1b3725cb613d7f11ef97d9745cc97a0e40f730621c052d684077a1936200068b93929186919062001dad565b60405180910390a1505060016000555050505050565b60055481565b60036020526000908152604090205481565b60026000541415620006df5760405162461bcd60e51b8152600401620002b890620022c3565b600260008181556001600160a01b0384168152602091909152604090205483116200071e5760405162461bcd60e51b8152600401620002b89062001ef5565b804310620007405760405162461bcd60e51b8152600401620002b8906200207c565b60208a0151518a515114801562000759575088518a5151145b801562000768575087518a5151145b801562000777575086518a5151145b620007965760405162461bcd60e51b8152600401620002b8906200228c565b600154620007a78b60065462000ca3565b14620007c75760405162461bcd60e51b8152600401620002b89062001e98565b84518651148015620007da575083518651145b620007f95760405162461bcd60e51b8152600401620002b89062001f4b565b6200085f8a600001518b602001518b8b8b6006546f0e8e4c2dce6c2c6e8d2dedc84c2e8c6d60831b8d8d8d8d8d8d6040516020016200084098979695949392919062001d36565b6040516020818303038152906040528051906020012060075462000da2565b6001600160a01b0382166000908152600260205260408120849055805b87518110156200090257620008ce8782815181106200089757fe5b6020026020010151898381518110620008ac57fe5b6020026020010151866001600160a01b031662000eac9092919063ffffffff16565b620008f7868281518110620008df57fe5b60200260200101518362000d7390919063ffffffff16565b91506001016200087c565b506200091f6001600160a01b038416338363ffffffff62000eac16565b506005546200093690600163ffffffff62000d7316565b60058190556040516001600160a01b0384169185917f02c7e81975f8edb86e2a0c038b7b86a49c744236abf0f6177ff5afc6986ab70891620009789162001c1e565b60405180910390a3505060016000555050505050505050565b60026000541415620009b75760405162461bcd60e51b8152600401620002b890620022c3565b60026000556040808501519086015111620009e65760405162461bcd60e51b8152600401620002b890620021ae565b6020850151518551511462000a0f5760405162461bcd60e51b8152600401620002b8906200211a565b60208401515184515114801562000a2857508251845151145b801562000a3757508151845151145b801562000a4657508051845151145b62000a655760405162461bcd60e51b8152600401620002b8906200228c565b60015462000a768560065462000ca3565b1462000a965760405162461bcd60e51b8152600401620002b89062001e98565b600062000aa68660065462000ca3565b905062000ac3856000015186602001518686868660075462000da2565b6001819055604086015160045560808601516001600160a01b03161580159062000af05750606086015115155b1562000b1e5762000b1e33876060015188608001516001600160a01b031662000eac9092919063ffffffff16565b60055462000b3490600163ffffffff62000d7316565b6005819055604080880151606089015160808a01518a5160208c0151945193957f76d08978c024a4bf8cbb30c67fd78fcaa1827cbc533e4e175f36d07e64ccf96a9562000b8695919493929162002308565b60405180910390a25050600160005550505050565b60045481565b60065481565b60009081526003602052604090205490565b62000bca8787878787878762000da2565b50505050505050565b60026020526000908152604090205481565b60075481565b60015481565b60003084848460405162000c05906200116e565b62000c14949392919062001bb6565b604051809103906000f08015801562000c31573d6000803e3d6000fd5b5060055490915062000c4b90600163ffffffff62000d7316565b60058190556040516001600160a01b038316917f82fe3a4fa49c6382d0c085746698ddbbafe6c2bf61285b19410644b5b26287c79162000c949189918991899189919062001e12565b60405180910390a25050505050565b6000806918da1958dadc1bda5b9d60b21b60001b90506000838286604001518760000151886020015189606001518a6080015160405160200162000cee979695949392919062001c27565b60408051601f198184030181529190528051602090910120925050505b92915050565b62000d6d846323b872dd60e01b85858560405160240162000d359392919062001b92565b60408051601f198184030181529190526020810180516001600160e01b03166001600160e01b03199093169290921790915262000f12565b50505050565b60008282018381101562000d9b5760405162461bcd60e51b8152600401620002b89062001fdf565b9392505050565b6000805b885181101562000e7f5786818151811062000dbd57fe5b602002602001015160ff1660001462000e765762000e2f89828151811062000de157fe5b60200260200101518589848151811062000df757fe5b602002602001015189858151811062000e0c57fe5b602002602001015189868151811062000e2157fe5b602002602001015162000fa9565b62000e4e5760405162461bcd60e51b8152600401620002b89062002039565b87818151811062000e5b57fe5b6020026020010151820191508282111562000e765762000e7f565b60010162000da6565b5081811162000ea25760405162461bcd60e51b8152600401620002b89062002151565b5050505050505050565b620002728363a9059cbb60e01b848460405160240162000d3592919062001c05565b606062000d9b83836040518060400160405280601e81526020017f416464726573733a206c6f772d6c6576656c2063616c6c206661696c6564000081525062001049565b606062000f69826040518060400160405280602081526020017f5361666545524332303a206c6f772d6c6576656c2063616c6c206661696c6564815250856001600160a01b0316620010499092919063ffffffff16565b80519091501562000272578080602001905181019062000f8a91906200167e565b620002725760405162461bcd60e51b8152600401620002b89062002242565b6000808560405160200162000fbf919062001b61565b6040516020818303038152906040528051906020012090506001818686866040516000815260200160405260405162000ffc949392919062001ddf565b6020604051602081039080840390855afa1580156200101f573d6000803e3d6000fd5b505050602060405103516001600160a01b0316876001600160a01b03161491505095945050505050565b60606200105a848460008562001062565b949350505050565b60606200106f8562001134565b6200108e5760405162461bcd60e51b8152600401620002b8906200220b565b60006060866001600160a01b03168587604051620010ad919062001b43565b60006040518083038185875af1925050503d8060008114620010ec576040519150601f19603f3d011682016040523d82523d6000602084013e620010f1565b606091505b50915091508115620011075791506200105a9050565b805115620011185780518082602001fd5b8360405162461bcd60e51b8152600401620002b8919062001dfd565b6000813f7fc5d2460186f7233c927e7db2dcc703c0e500b653ca82273b7bfad8045d85a4708181148015906200105a575050151592915050565b610e7c80620023d083390190565b80356001600160a01b038116811462000d0b57600080fd5b600082601f830112620011a5578081fd5b8135620011bc620011b6826200237f565b62002357565b818152915060208083019084810181840286018201871015620011de57600080fd5b60005b848110156200120957620011f688836200117c565b84529282019290820190600101620011e1565b505050505092915050565b600082601f83011262001225578081fd5b813562001236620011b6826200237f565b8181529150602080830190848101818402860182018710156200125857600080fd5b60005b8481101562001209578135845292820192908201906001016200125b565b600082601f8301126200128a578081fd5b81356200129b620011b6826200237f565b818152915060208083019084810181840286018201871015620012bd57600080fd5b60005b848110156200120957620012d588836200151e565b84529282019290820190600101620012c0565b600082601f830112620012f9578081fd5b813567ffffffffffffffff81111562001310578182fd5b62001325601f8201601f191660200162002357565b91508082528360208285010111156200133d57600080fd5b8060208401602084013760009082016020015292915050565b60006101208083850312156200136a578182fd5b620013758162002357565b915050813567ffffffffffffffff808211156200139157600080fd5b6200139f8583860162001214565b83526020840135915080821115620013b657600080fd5b620013c48583860162001194565b60208401526040840135915080821115620013de57600080fd5b620013ec8583860162001214565b604084015260608401359150808211156200140657600080fd5b620014148583860162001194565b60608401526200142885608086016200117c565b608084015260a08401359150808211156200144257600080fd5b506200145184828501620012e8565b60a08301525060c082013560c082015260e082013560e082015261010080830135818301525092915050565b600060a082840312156200148f578081fd5b6200149b60a062002357565b9050813567ffffffffffffffff80821115620014b657600080fd5b620014c48583860162001194565b83526020840135915080821115620014db57600080fd5b50620014ea8482850162001214565b60208301525060408201356040820152606082013560608201526200151383608084016200117c565b608082015292915050565b803560ff8116811462000d0b57600080fd5b60006020828403121562001542578081fd5b62000d9b83836200117c565b60008060006060848603121562001563578182fd5b83356001600160a01b03811681146200157a578283fd5b95602085013595506040909401359392505050565b600080600080600080600060e0888a031215620015aa578283fd5b873567ffffffffffffffff80821115620015c2578485fd5b620015d08b838c0162001194565b985060208a0135915080821115620015e6578485fd5b620015f48b838c0162001214565b975060408a01359150808211156200160a578485fd5b620016188b838c0162001279565b965060608a01359150808211156200162e578485fd5b6200163c8b838c0162001214565b955060808a013591508082111562001652578485fd5b50620016618a828b0162001214565b93505060a0880135915060c0880135905092959891949750929550565b60006020828403121562001690578081fd5b8151801515811462000d9b578182fd5b600060208284031215620016b2578081fd5b5035919050565b60008060008060808587031215620016cf578182fd5b843567ffffffffffffffff80821115620016e7578384fd5b620016f588838901620012e8565b955060208701359150808211156200170b578384fd5b6200171988838901620012e8565b945060408701359150808211156200172f578384fd5b506200173e87828801620012e8565b9250506200175086606087016200151e565b905092959194509250565b6000806000806000806000806000806101408b8d0312156200177b578384fd5b8a3567ffffffffffffffff8082111562001793578586fd5b620017a18e838f016200147d565b9b5060208d0135915080821115620017b7578586fd5b620017c58e838f0162001279565b9a5060408d0135915080821115620017db578586fd5b620017e98e838f0162001214565b995060608d0135915080821115620017ff578586fd5b6200180d8e838f0162001214565b985060808d013591508082111562001823578586fd5b620018318e838f0162001214565b975060a08d013591508082111562001847578586fd5b620018558e838f0162001194565b965060c08d01359150808211156200186b578586fd5b506200187a8d828e0162001214565b94505060e08b01359250620018948c6101008d016200117c565b91506101208b013590509295989b9194979a5092959850565b600080600080600060a08688031215620018c5578283fd5b853567ffffffffffffffff80821115620018dd578485fd5b620018eb89838a016200147d565b9650602088013591508082111562001901578485fd5b6200190f89838a0162001279565b9550604088013591508082111562001925578485fd5b6200193389838a0162001214565b9450606088013591508082111562001949578283fd5b6200195789838a0162001214565b935060808801359150808211156200196d578283fd5b506200197c8882890162001356565b9150509295509295909350565b600080604083850312156200199c578182fd5b823567ffffffffffffffff811115620019b3578283fd5b620019c1858286016200147d565b95602094909401359450505050565b600080600080600060a08688031215620019e8578283fd5b853567ffffffffffffffff8082111562001a00578485fd5b62001a0e89838a016200147d565b9650602088013591508082111562001a24578485fd5b62001a3289838a016200147d565b9550604088013591508082111562001a48578485fd5b62001a5689838a0162001279565b9450606088013591508082111562001a6c578283fd5b62001a7a89838a0162001214565b9350608088013591508082111562001a90578283fd5b506200197c8882890162001214565b6000815180845260208085019450808401835b8381101562001ad95781516001600160a01b03168752958201959082019060010162001ab2565b509495945050505050565b6000815180845260208085019450808401835b8381101562001ad95781518752958201959082019060010162001af7565b6000815180845262001b2f816020860160208601620023a0565b601f01601f19169290920160200192915050565b6000825162001b57818460208701620023a0565b9190910192915050565b7f19457468657265756d205369676e6564204d6573736167653a0a3332000000008152601c810191909152603c0190565b6001600160a01b039384168152919092166020820152604081019190915260600190565b6001600160a01b038516815260806020820181905260009062001bdc9083018662001b15565b828103604084015262001bf0818662001b15565b91505060ff8316606083015295945050505050565b6001600160a01b03929092168252602082015260400190565b90815260200190565b600088825287602083015286604083015260e0606083015262001c4e60e083018762001a9f565b828103608084015262001c62818762001ae4565b60a084019590955250506001600160a01b039190911660c09091015295945050505050565b60006101608d83528c602084015280604084015262001ca98184018d62001ae4565b838103606085015262001cbd818d62001a9f565b915050828103608084015262001cd4818b62001ae4565b83810360a085015262001ce8818b62001a9f565b6001600160a01b038a1660c086015284810360e0860152915062001d0f9050818862001b15565b61010084019690965250506101208101929092526101409091015298975050505050505050565b60006101008a835289602084015280604084015262001d588184018a62001ae4565b838103606085015262001d6c818a62001a9f565b915050828103608084015262001d83818862001ae4565b60a084019690965250506001600160a01b039290921660c083015260e09091015295945050505050565b60008582528460208301526080604083015262001dce608083018562001b15565b905082606083015295945050505050565b93845260ff9290921660208401526040830152606082015260800190565b60006020825262000d9b602083018462001b15565b600060a0825262001e2760a083018862001b15565b828103602084015262001e3b818862001b15565b838103604085015262001e4f818862001b15565b60ff969096166060850152505050608001529392505050565b6020808252601690820152754d616c666f726d6564206c697374206f66206665657360501b604082015260600190565b6020808252603f908201527f537570706c6965642063757272656e742076616c696461746f727320616e642060408201527f706f7765727320646f206e6f74206d6174636820636865636b706f696e742e00606082015260800190565b60208082526036908201527f4e6577206261746368206e6f6e6365206d7573742062652067726561746572206040820152757468616e207468652063757272656e74206e6f6e636560501b606082015260800190565b6020808252601f908201527f4d616c666f726d6564206261746368206f66207472616e73616374696f6e7300604082015260600190565b6020808252603d908201527f4e657720696e76616c69646174696f6e206e6f6e6365206d757374206265206760408201527f726561746572207468616e207468652063757272656e74206e6f6e6365000000606082015260800190565b6020808252601b908201527f536166654d6174683a206164646974696f6e206f766572666c6f770000000000604082015260600190565b602080825260099082015268151a5b5959081bdd5d60ba1b604082015260600190565b60208082526023908201527f56616c696461746f72207369676e617475726520646f6573206e6f74206d617460408201526231b41760e91b606082015260800190565b6020808252603b908201527f42617463682074696d656f7574206d757374206265206772656174657220746860408201527f616e207468652063757272656e7420626c6f636b206865696768740000000000606082015260800190565b60208082526021908201527f4d616c666f726d6564206c697374206f6620746f6b656e207472616e736665726040820152607360f81b606082015260800190565b6020808252601b908201527f4d616c666f726d6564206e65772076616c696461746f72207365740000000000604082015260600190565b6020808252603c908201527f5375626d69747465642076616c696461746f7220736574207369676e6174757260408201527f657320646f206e6f74206861766520656e6f75676820706f7765722e00000000606082015260800190565b60208082526037908201527f4e65772076616c736574206e6f6e6365206d757374206265206772656174657260408201527f207468616e207468652063757272656e74206e6f6e6365000000000000000000606082015260800190565b6020808252601d908201527f416464726573733a2063616c6c20746f206e6f6e2d636f6e7472616374000000604082015260600190565b6020808252602a908201527f5361666545524332303a204552433230206f7065726174696f6e20646964206e6040820152691bdd081cdd58d8d9595960b21b606082015260800190565b6020808252601f908201527f4d616c666f726d65642063757272656e742076616c696461746f722073657400604082015260600190565b6020808252601f908201527f5265656e7472616e637947756172643a207265656e7472616e742063616c6c00604082015260600190565b918252602082015260400190565b600086825285602083015260018060a01b038516604083015260a060608301526200233760a083018562001a9f565b82810360808401526200234b818562001ae4565b98975050505050505050565b60405181810167ffffffffffffffff811182821017156200237757600080fd5b604052919050565b600067ffffffffffffffff82111562002396578081fd5b5060209081020190565b60005b83811015620023bd578181015183820152602001620023a3565b8381111562000d6d575050600091015256fe60806040526000196006553480156200001757600080fd5b5060405162000e7c38038062000e7c833981810160405260808110156200003d57600080fd5b8151602083018051604051929492938301929190846401000000008211156200006557600080fd5b9083019060208201858111156200007b57600080fd5b82516401000000008111828201881017156200009657600080fd5b82525081516020918201929091019080838360005b83811015620000c5578181015183820152602001620000ab565b50505050905090810190601f168015620000f35780820380516001836020036101000a031916815260200191505b50604052602001805160405193929190846401000000008211156200011757600080fd5b9083019060208201858111156200012d57600080fd5b82516401000000008111828201881017156200014857600080fd5b82525081516020918201929091019080838360005b83811015620001775781810151838201526020016200015d565b50505050905090810190601f168015620001a55780820380516001836020036101000a031916815260200191505b5060405260209081015185519093508592508491620001ca91600391850190620003b7565b508051620001e0906004906020840190620003b7565b50506005805460ff191660121790555062000204816001600160e01b036200022216565b62000218846006546200023860201b60201c565b505050506200045c565b6005805460ff191660ff92909216919091179055565b6001600160a01b03821662000294576040805162461bcd60e51b815260206004820152601f60248201527f45524332303a206d696e7420746f20746865207a65726f206164647265737300604482015290519081900360640190fd5b620002ab600083836001600160e01b036200035016565b620002c7816002546200035560201b620008731790919060201c565b6002556001600160a01b03821660009081526020818152604090912054620002fa9183906200087362000355821b17901c565b6001600160a01b0383166000818152602081815260408083209490945583518581529351929391927fddf252ad1be2c89b69c2b068fc378daa952ba7f163c4a11628f55a4df523b3ef9281900390910190a35050565b505050565b600082820183811015620003b0576040805162461bcd60e51b815260206004820152601b60248201527f536166654d6174683a206164646974696f6e206f766572666c6f770000000000604482015290519081900360640190fd5b9392505050565b828054600181600116156101000203166002900490600052602060002090601f016020900481019282601f10620003fa57805160ff19168380011785556200042a565b828001600101855582156200042a579182015b828111156200042a5782518255916020019190600101906200040d565b50620004389291506200043c565b5090565b6200045991905b8082111562000438576000815560010162000443565b90565b610a10806200046c6000396000f3fe608060405234801561001057600080fd5b50600436106100a95760003560e01c8063395093511161007157806339509351146101d957806370a082311461020557806395d89b411461022b578063a457c2d714610233578063a9059cbb1461025f578063dd62ed3e1461028b576100a9565b806306fdde03146100ae578063095ea7b31461012b57806318160ddd1461016b57806323b872dd14610185578063313ce567146101bb575b600080fd5b6100b66102b9565b6040805160208082528351818301528351919283929083019185019080838360005b838110156100f05781810151838201526020016100d8565b50505050905090810190601f16801561011d5780820380516001836020036101000a031916815260200191505b509250505060405180910390f35b6101576004803603604081101561014157600080fd5b506001600160a01b03813516906020013561034f565b604080519115158252519081900360200190f35b61017361036c565b60408051918252519081900360200190f35b6101576004803603606081101561019b57600080fd5b506001600160a01b03813581169160208101359091169060400135610372565b6101c36103ff565b6040805160ff9092168252519081900360200190f35b610157600480360360408110156101ef57600080fd5b506001600160a01b038135169060200135610408565b6101736004803603602081101561021b57600080fd5b50356001600160a01b031661045c565b6100b6610477565b6101576004803603604081101561024957600080fd5b506001600160a01b0381351690602001356104d8565b6101576004803603604081101561027557600080fd5b506001600160a01b038135169060200135610546565b610173600480360360408110156102a157600080fd5b506001600160a01b038135811691602001351661055a565b60038054604080516020601f60026000196101006001881615020190951694909404938401819004810282018101909252828152606093909290918301828280156103455780601f1061031a57610100808354040283529160200191610345565b820191906000526020600020905b81548152906001019060200180831161032857829003601f168201915b5050505050905090565b600061036361035c610585565b8484610589565b50600192915050565b60025490565b600061037f848484610675565b6103f58461038b610585565b6103f085604051806060016040528060288152602001610945602891396001600160a01b038a166000908152600160205260408120906103c9610585565b6001600160a01b03168152602081019190915260400160002054919063ffffffff6107dc16565b610589565b5060019392505050565b60055460ff1690565b6000610363610415610585565b846103f08560016000610426610585565b6001600160a01b03908116825260208083019390935260409182016000908120918c16815292529020549063ffffffff61087316565b6001600160a01b031660009081526020819052604090205490565b60048054604080516020601f60026000196101006001881615020190951694909404938401819004810282018101909252828152606093909290918301828280156103455780601f1061031a57610100808354040283529160200191610345565b60006103636104e5610585565b846103f0856040518060600160405280602581526020016109b6602591396001600061050f610585565b6001600160a01b03908116825260208083019390935260409182016000908120918d1681529252902054919063ffffffff6107dc16565b6000610363610553610585565b8484610675565b6001600160a01b03918216600090815260016020908152604080832093909416825291909152205490565b3390565b6001600160a01b0383166105ce5760405162461bcd60e51b81526004018080602001828103825260248152602001806109926024913960400191505060405180910390fd5b6001600160a01b0382166106135760405162461bcd60e51b81526004018080602001828103825260228152602001806108fd6022913960400191505060405180910390fd5b6001600160a01b03808416600081815260016020908152604080832094871680845294825291829020859055815185815291517f8c5be1e5ebec7d5bd14f71427d1e84f3dd0314c0f7b2291e5b200ac8c7c3b9259281900390910190a3505050565b6001600160a01b0383166106ba5760405162461bcd60e51b815260040180806020018281038252602581526020018061096d6025913960400191505060405180910390fd5b6001600160a01b0382166106ff5760405162461bcd60e51b81526004018080602001828103825260238152602001806108da6023913960400191505060405180910390fd5b61070a8383836108d4565b61074d8160405180606001604052806026815260200161091f602691396001600160a01b038616600090815260208190526040902054919063ffffffff6107dc16565b6001600160a01b038085166000908152602081905260408082209390935590841681522054610782908263ffffffff61087316565b6001600160a01b038084166000818152602081815260409182902094909455805185815290519193928716927fddf252ad1be2c89b69c2b068fc378daa952ba7f163c4a11628f55a4df523b3ef92918290030190a3505050565b6000818484111561086b5760405162461bcd60e51b81526004018080602001828103825283818151815260200191508051906020019080838360005b83811015610830578181015183820152602001610818565b50505050905090810190601f16801561085d5780820380516001836020036101000a031916815260200191505b509250505060405180910390fd5b505050900390565b6000828201838110156108cd576040805162461bcd60e51b815260206004820152601b60248201527f536166654d6174683a206164646974696f6e206f766572666c6f770000000000604482015290519081900360640190fd5b9392505050565b50505056fe45524332303a207472616e7366657220746f20746865207a65726f206164647265737345524332303a20617070726f766520746f20746865207a65726f206164647265737345524332303a207472616e7366657220616d6f756e7420657863656564732062616c616e636545524332303a207472616e7366657220616d6f756e74206578636565647320616c6c6f77616e636545524332303a207472616e736665722066726f6d20746865207a65726f206164647265737345524332303a20617070726f76652066726f6d20746865207a65726f206164647265737345524332303a2064656372656173656420616c6c6f77616e63652062656c6f77207a65726fa2646970667358221220056189446ba73dd465b19ce8706c466a05134d28bd3efb2777ac79423b2a6b2264736f6c63430006060033a264697066735822122031819c44bc6b32b093be213147c84bde933ef38a87b9e28b5757675d7999384064736f6c63430006060033",
  "linkReferences": {},
  "deployedLinkReferences": {}
}